{"abi":[{"type":"constructor","inputs":[{"name":"_stablecoin","type":"address","internalType":"address"}],"stateMutability":"nonpayable"},{"type":"function","name":"BATCH_TIMEOUT","inputs":[],"outputs":[{"name":"","type":"uint256","internalType":"uint256"}],"stateMutability":"view"},{"type":"function","name":"MAX_BATCH_SIZE","inputs":[],"outputs":[{"name":"","type":"uint256","internalType":"uint256"}],"stateMutability":"view"},{"type":"function","name":"batchCounts","inputs":[{"name":"","type":"bytes32","internalType":"bytes32"}],"outputs":[{"name":"","type":"uint256","internalType":"uint256"}],"stateMutability":"view"},{"type":"function","name":"batchPayments","inputs":[{"name":"","type":"bytes32","internalType":"bytes32"},{"name":"","type":"uint256","internalType":"uint256"}],"outputs":[{"name":"recipient","type":"address","internalType":"address"},{"name":"amount","type":"uint256","internalType":"uint256"},{"name":"processed","type":"bool","internalType":"bool"},{"name":"createdAt","type":"uint256","internalType":"uint256"},{"name":"signature","type":"bytes","internalType":"bytes"}],"stateMutability":"view"},{"type":"function","name":"createBatch","inputs":[{"name":"batchId","type":"bytes32","internalType":"bytes32"},{"name":"recipients","type":"address[]","internalType":"address[]"},{"name":"amounts","type":"uint256[]","internalType":"uint256[]"},{"name":"signatures","type":"bytes[]","internalType":"bytes[]"}],"outputs":[],"stateMutability":"nonpayable"},{"type":"function","name":"disputePayment","inputs":[{"name":"batchId","type":"bytes32","internalType":"bytes32"},{"name":"paymentIndex","type":"uint256","internalType":"uint256"}],"outputs":[],"stateMutability":"nonpayable"},{"type":"function","name":"expireBatch","inputs":[{"name":"batchId","type":"bytes32","internalType":"bytes32"}],"outputs":[],"stateMutability":"nonpayable"},{"type":"function","name":"owner","inputs":[],"outputs":[{"name":"","type":"address","internalType":"address"}],"stateMutability":"view"},{"type":"function","name":"pause","inputs":[],"outputs":[],"stateMutability":"nonpayable"},{"type":"function","name":"paused","inputs":[],"outputs":[{"name":"","type":"bool","internalType":"bool"}],"stateMutability":"view"},{"type":"function","name":"processBatch","inputs":[{"name":"batchId","type":"bytes32","internalType":"bytes32"}],"outputs":[],"stateMutability":"nonpayable"},{"type":"function","name":"renounceOwnership","inputs":[],"outputs":[],"stateMutability":"nonpayable"},{"type":"function","name":"stablecoin","inputs":[],"outputs":[{"name":"","type":"address","internalType":"contract IERC20"}],"stateMutability":"view"},{"type":"function","name":"totalPaid","inputs":[{"name":"","type":"address","internalType":"address"}],"outputs":[{"name":"","type":"uint256","internalType":"uint256"}],"stateMutability":"view"},{"type":"function","name":"transferOwnership","inputs":[{"name":"newOwner","type":"address","internalType":"address"}],"outputs":[],"stateMutability":"nonpayable"},{"type":"function","name":"unpause","inputs":[],"outputs":[],"stateMutability":"nonpayable"},{"type":"function","name":"usedSignatures","inputs":[{"name":"","type":"bytes32","internalType":"bytes32"}],"outputs":[{"name":"","type":"bool","internalType":"bool"}],"stateMutability":"view"},{"type":"event","name":"BatchCompletedEvent","inputs":[{"name":"batchId","type":"bytes32","indexed":true,"internalType":"bytes32"},{"name":"totalAmount","type":"uint256","indexed":false,"internalType":"uint256"}],"anonymous":false},{"type":"event","name":"BatchCreatedEvent","inputs":[{"name":"batchId","type":"bytes32","indexed":true,"internalType":"bytes32"}],"anonymous":false},{"type":"event","name":"BatchExpiredEvent","inputs":[{"name":"batchId","type":"bytes32","indexed":true,"internalType":"bytes32"}],"anonymous":false},{"type":"event","name":"BatchTimedOutEvent","inputs":[{"name":"batchId","type":"bytes32","indexed":true,"internalType":"bytes32"}],"anonymous":false},{"type":"event","name":"OwnershipTransferred","inputs":[{"name":"previousOwner","type":"address","indexed":true,"internalType":"address"},{"name":"newOwner","type":"address","indexed":true,"internalType":"address"}],"anonymous":false},{"type":"event","name":"Paused","inputs":[{"name":"account","type":"address","indexed":false,"internalType":"address"}],"anonymous":false},{"type":"event","name":"PaymentDisputedEvent","inputs":[{"name":"batchId","type":"bytes32","indexed":true,"internalType":"bytes32"},{"name":"recipient","type":"address","indexed":true,"internalType":"address"}],"anonymous":false},{"type":"event","name":"PaymentProcessedEvent","inputs":[{"name":"batchId","type":"bytes32","indexed":true,"internalType":"bytes32"},{"name":"recipient","type":"address","indexed":true,"internalType":"address"},{"name":"amount","type":"uint256","indexed":false,"internalType":"uint256"},{"name":"signature","type":"bytes","indexed":false,"internalType":"bytes"}],"anonymous":false},{"type":"event","name":"Unpaused","inputs":[{"name":"account","type":"address","indexed":false,"internalType":"address"}],"anonymous":false},{"type":"error","name":"BatchAlreadyExists","inputs":[]},{"type":"error","name":"BatchNotExpired","inputs":[{"name":"batchId","type":"bytes32","internalType":"bytes32"}]},{"type":"error","name":"BatchNotFound","inputs":[]},{"type":"error","name":"InvalidBatchInputs","inputs":[]},{"type":"error","name":"InvalidBatchSize","inputs":[]},{"type":"error","name":"InvalidRecipient","inputs":[]},{"type":"error","name":"InvalidSignature","inputs":[]},{"type":"error","name":"PaymentAlreadyProcessed","inputs":[]},{"type":"error","name":"TransferFailed","inputs":[]},{"type":"error","name":"UnauthorizedDispute","inputs":[]}],"bytecode":{"object":"0x60a0346100e457601f61162938819003918201601f19168301916001600160401b038311848410176100e9578084926020946040528339810103126100e457516001600160a01b03808216918290036100e4576000543360018060a01b0319821617600055604051913391167f8be0079c531659141344cd1fd0a4f28419497f9722a3daafe3b4186f6b6457e0600080a36001805560ff196002541660025581156100d55750608052604051611529908161010082396080518181816101ec0152818161032c015281816106f60152610c280152f35b634e46966960e11b8152600490fd5b600080fd5b634e487b7160e01b600052604160045260246000fdfe608080604052600436101561001357600080fd5b60003560e01c9081633dd6d533146110a1575080633f4ba83a1461100d5780634df9a05a14610f6857806359c2e52414610e0f5780635c975abb14610dec578063715018a614610d93578063771fcf5b14610d755780638456cb5914610d1b5780638da5cb5b14610cf25780639457963914610b835780639acdddbd14610b57578063a065c15a146105ed578063cfdbf254146105d1578063dffe86ae1461021b578063e9cbd822146101d6578063f2fde38b146101105763f978fd61146100da57600080fd5b3461010b57602036600319011261010b576004356000526006602052602060ff604060002054166040519015158152f35b600080fd5b3461010b57602036600319011261010b576004356001600160a01b038181169182900361010b5761013f61117f565b811561018257600054826001600160601b0360a01b821617600055167f8be0079c531659141344cd1fd0a4f28419497f9722a3daafe3b4186f6b6457e0600080a3005b60405162461bcd60e51b815260206004820152602660248201527f4f776e61626c653a206e6577206f776e657220697320746865207a65726f206160448201526564647265737360d01b6064820152608490fd5b3461010b57600036600319011261010b576040517f00000000000000000000000000000000000000000000000000000000000000006001600160a01b03168152602090f35b3461010b5760208060031936011261010b576002906001918083541461058c578083556102466112ce565b60043591826000526004815260406000205491821561057a576000805b84811061051f575b50156105065760009260005b8181106102bc575050508161028b57838055005b7fa6e162497fb27f9e11d77e81e221fdedd993380efcfc8920c597d735c1d5adb591604051908152a2818080838055005b8560005260038452604060002081600052845260406000209083820160ff815416156102f3575b506102ee91506111d7565b610277565b8254898401805460405163a9059cbb60e01b81526001600160a01b039384166004820152602481019190915291989091888160448160007f00000000000000000000000000000000000000000000000000000000000000008f165af19081156104fa576000916104cd575b50156104bb578a8a9260ff199482868254161790556103a08154918c895416600052600592838d5261039660406000209182546112a9565b90555480946112a9565b9a8754169460405193845260408b850152600460009801918254906103c4826110f2565b948560408801528216928360001461047857505050600114610413575b5050807f20d300758b5c1ef655cb33292951976982208da09bfae4fc0c6ec8c903e9ef43916102ee960390a3886102e3565b9095506000528760002094888c6000975b83891061045d575050505093840160600193807f20d300758b5c1ef655cb33292951976982208da09bfae4fc0c6ec8c903e9ef436103e1565b80548986016060015297909101968c94508a918e9101610424565b909116606080870191909152931515901b840190920196508291507f20d300758b5c1ef655cb33292951976982208da09bfae4fc0c6ec8c903e9ef4390506103e1565b6040516312171d8360e31b8152600490fd5b6104ed9150893d8b116104f3575b6104e5818361112c565b8101906112b6565b8c61035e565b503d6104db565b6040513d6000823e3d90fd5b604051631984eff760e31b815260048101859052602490fd5b85600052600380855260406000208260005285526040600020015462015180810180911161056457421161055b57610556906111d7565b610263565b5050848661026b565b634e487b7160e01b600052601160045260246000fd5b604051632785786f60e21b8152600490fd5b60405162461bcd60e51b815260048101839052601f60248201527f5265656e7472616e637947756172643a207265656e7472616e742063616c6c006044820152606490fd5b3461010b57600036600319011261010b57602060405160648152f35b3461010b57608036600319011261010b5760243567ffffffffffffffff811161010b5761061e90369060040161114e565b60443567ffffffffffffffff811161010b5761063e90369060040161114e565b9260643567ffffffffffffffff811161010b5761065f90369060040161114e565b946106686112ce565b61067061117f565b84158015610b4d575b610b3b57808514801590610b31575b610b1f576004356000526004602052604060002054610b0d57949291906000956000945b8686106107765787876004356000526004602052604060002055604051906323b872dd60e01b82523360048301523060248301526044820152602081606481600060018060a01b037f0000000000000000000000000000000000000000000000000000000000000000165af19081156104fa57600091610757575b50156104bb576004357fc6332c92493a6dd845257af7da311dbe3458ba58c7e9a5e005cd70a64d6fe67b600080a2005b610770915060203d6020116104f3576104e5818361112c565b81610727565b90919293949660018060a01b036107966107918a8a896111e6565b61120c565b1615610afb5760416107a9898487611220565b905003610ae9576107be6107918989886111e6565b6107c98985896111e6565b35906107e06107d98b8689611220565b3691611262565b916040519060043560208301526001600160601b03198360601b16604083015260549081830152815280608081011067ffffffffffffffff608083011117610ad357608081016040819052815160208301207f19457468657265756d205369676e6564204d6573736167653a0a33320000000060a084015260bc830152603c815267ffffffffffffffff60e08301908111911117610ad35761089e928160e0610896930160405260a0608082015191012061142c565b929092611312565b6001600160a01b03908116911603610ae9576108c6906108bf8985896111e6565b35906112a9565b966108d56107918289886111e6565b6108e08285896111e6565b356108ec838588611220565b90604051938460a081011067ffffffffffffffff60a087011117610ad35760a0850160405260018060a01b031684526020840192835261093d60408501916000835260608601934285523691611262565b9260808501938452600435600052600360205260406000208660005260205260406000209460018060a01b039051166001600160601b0360a01b865416178555516001850155600284019051151560ff801983541691161790555160038301555180519067ffffffffffffffff8211610ad3576109bd60048401546110f2565b601f8111610a8c575b50602090601f8311600114610a17579180600492610a02969594600092610a0c575b50508160011b916000199060031b1c1916179101556111d7565b94939291906106ac565b015190508d806109e8565b906004840160005260206000209160005b601f1985168110610a74575092600492600192610a0297969583601f19811610610a5b575b505050811b019101556111d7565b015160001960f88460031b161c191690558d8080610a4d565b91926020600181928685015181550194019201610a28565b600484016000526020600020601f840160051c810160208510610acc575b601f830160051c82018110610ac05750506109c6565b60008155600101610aaa565b5080610aaa565b634e487b7160e01b600052604160045260246000fd5b604051638baa579f60e01b8152600490fd5b604051634e46966960e11b8152600490fd5b60405163d15f973b60e01b8152600490fd5b604051633975499360e11b8152600490fd5b5085851415610688565b604051637862e95960e01b8152600490fd5b5060648511610679565b3461010b57602036600319011261010b5760043560005260046020526020604060002054604051908152f35b3461010b5760208060031936011261010b57600435908160005260048152604060002054801561057a5782600052600390818352604060002060008052835281604060002001546201518081018091116105645742106105065760009160005b828110610ca45750505080610bf457005b6000805460405163a9059cbb60e01b81526001600160a01b03918216600482015260248101939093528391839160449183917f0000000000000000000000000000000000000000000000000000000000000000165af19182156104fa57600092610c87575b5050156104bb577f05c8985565efb908beeb20a3bef477c094981e51ce81426f00ee94b3dfe74162600080a2005b610c9d9250803d106104f3576104e5818361112c565b8280610c59565b856000528185526040600020816000528552604060002060ff60028201541615610cd8575b50610cd3906111d7565b610be3565b610cd391946001610ceb920154906112a9565b9390610cc9565b3461010b57600036600319011261010b576000546040516001600160a01b039091168152602090f35b3461010b57600036600319011261010b57610d3461117f565b610d3c6112ce565b600160ff1960025416176002557f62e78cea01bee320cd4e420270b5ea74000d11b0c9f74754ebdbfc544b05a2586020604051338152a1005b3461010b57600036600319011261010b576020604051620151808152f35b3461010b57600036600319011261010b57610dac61117f565b600080546001600160a01b0319811682556001600160a01b03167f8be0079c531659141344cd1fd0a4f28419497f9722a3daafe3b4186f6b6457e08280a3005b3461010b57600036600319011261010b57602060ff600254166040519015158152f35b3461010b57610e1d366110dc565b90600052602090600382526040600020906000528152604060002060018060a01b03815416916001918281015460ff600283015416906004600384015493016040518096600090835493610e70856110f2565b94858552898382169182600014610f46575050600114610f07575b5050610e9f9250979594939297038661112c565b60405195869485528385015215156040840152606083015260a060808301528251908160a08401526000935b828510610eee57505060c092506000838284010152601f80199101168101030190f35b84810182015186860160c0015293810193859350610ecb565b88925060005281600020906000915b858310610f2e575050610e9f93508201018980610e8b565b8054838c018501528a94508993909201918101610f16565b9250935050610e9f94915060ff191682840152151560051b8201018980610e8b565b3461010b57610f76366110dc565b81600052600460205260406000205481101561057a5760008281526003602090815260408083209383529290522080546001600160a01b03163303610ffb576002015460ff16610fe95733907f538c01d29617fad0572234611975b45a5d4925dd1ac94847be5863f3f9470c74600080a3005b60405163424e8d7160e01b8152600490fd5b6040516302ea60e360e01b8152600490fd5b3461010b57600036600319011261010b5761102661117f565b60025460ff8116156110655760ff19166002557f5db9ee0a495bf2e6ff9c91a7834c1ba4fdd244a5e8aa4e537bd38aeae4b073aa6020604051338152a1005b60405162461bcd60e51b815260206004820152601460248201527314185d5cd8589b194e881b9bdd081c185d5cd95960621b6044820152606490fd5b3461010b57602036600319011261010b576004356001600160a01b038116919082900361010b57602091600052600582526040600020548152f35b604090600319011261010b576004359060243590565b90600182811c92168015611122575b602083101461110c57565b634e487b7160e01b600052602260045260246000fd5b91607f1691611101565b90601f8019910116810190811067ffffffffffffffff821117610ad357604052565b9181601f8401121561010b5782359167ffffffffffffffff831161010b576020808501948460051b01011161010b57565b6000546001600160a01b0316330361119357565b606460405162461bcd60e51b815260206004820152602060248201527f4f776e61626c653a2063616c6c6572206973206e6f7420746865206f776e65726044820152fd5b60001981146105645760010190565b91908110156111f65760051b0190565b634e487b7160e01b600052603260045260246000fd5b356001600160a01b038116810361010b5790565b91908110156111f65760051b81013590601e198136030182121561010b57019081359167ffffffffffffffff831161010b57602001823603811361010b579190565b92919267ffffffffffffffff8211610ad3576040519161128c601f8201601f19166020018461112c565b82948184528183011161010b578281602093846000960137010152565b9190820180921161056457565b9081602091031261010b5751801515810361010b5790565b60ff600254166112da57565b60405162461bcd60e51b815260206004820152601060248201526f14185d5cd8589b194e881c185d5cd95960821b6044820152606490fd5b600581101561141657806113235750565b600181036113705760405162461bcd60e51b815260206004820152601860248201527f45434453413a20696e76616c6964207369676e617475726500000000000000006044820152606490fd5b600281036113bd5760405162461bcd60e51b815260206004820152601f60248201527f45434453413a20696e76616c6964207369676e6174757265206c656e677468006044820152606490fd5b6003146113c657565b60405162461bcd60e51b815260206004820152602260248201527f45434453413a20696e76616c6964207369676e6174757265202773272076616c604482015261756560f01b6064820152608490fd5b634e487b7160e01b600052602160045260246000fd5b90604181511460001461145a57611456916020820151906060604084015193015160001a90611464565b9091565b5050600090600290565b9291907f7fffffffffffffffffffffffffffffff5d576e7357a4501ddfe92f46681b20a083116114e75791608094939160ff602094604051948552168484015260408301526060820152600093849182805260015afa156114da5781516001600160a01b038116156114d4579190565b50600190565b50604051903d90823e3d90fd5b5050505060009060039056fea26469706673582212200cb5171a56ffa11158925517603c06219062201f963d77854cadd8405331d26964736f6c63430008130033","linkReferences":{}},"methodIdentifiers":{"BATCH_TIMEOUT()":"771fcf5b","MAX_BATCH_SIZE()":"cfdbf254","batchCounts(bytes32)":"9acdddbd","batchPayments(bytes32,uint256)":"59c2e524","createBatch(bytes32,address[],uint256[],bytes[])":"a065c15a","disputePayment(bytes32,uint256)":"4df9a05a","expireBatch(bytes32)":"94579639","owner()":"8da5cb5b","pause()":"8456cb59","paused()":"5c975abb","processBatch(bytes32)":"dffe86ae","renounceOwnership()":"715018a6","stablecoin()":"e9cbd822","totalPaid(address)":"3dd6d533","transferOwnership(address)":"f2fde38b","unpause()":"3f4ba83a","usedSignatures(bytes32)":"f978fd61"},"id":40}